:100000000C9462000C948A000C948A000C948A0070
:100010000C948A000C948A000C948A000C948A0038
:100020000C948A000C948A000C948A000C948A0028
:100030000C948A000C948A000C948A000C948A0018
:100040000C941D070C948A000C94EB060C94C506C6
:100050000C948A000C948A000C948A000C948A00F8
:100060000C948A000C948A000000000023002600F3
:10007000290000000000240027002A0000000000E2
:10008000250028002B0004040404040404040202D4
:100090000202020203030303030301020408102007
:1000A0004080010204081020010204081020000012
:1000B0000008000201000003040700000000000027
:1000C0000000670711241FBECFEFD8E0DEBFCDBF11
:1000D00011E0A0E0B1E0ECE4F6E102C005900D9281
:1000E000A43CB107D9F722E0A4ECB1E001C01D9215
:1000F000A537B207E1F710E0C2E6D0E004C02197CF
:10010000FE010E94190BC136D107C9F70E94B6073C
:100110000C94240B0C940000AF92BF92CF92DF920C
:10012000EF92FF920F931F93CF93DF936C017B01AC
:100130008B01040F151FEB015E01AE18BF08C0173D
:10014000D10759F06991D601ED91FC910190F081B0
:10015000E02DC6010995892B79F7C501DF91CF9173
:100160001F910F91FF90EF90DF90CF90BF90AF90D5
:100170000895FC01538D448D252F30E0842F90E0AD
:10018000821B930B541710F0CF9608950197089592
:10019000FC01918D828D981761F0A28DAE0FBF2F5B
:1001A000B11D5D968C91928D9F5F9F73928F90E0B1
:1001B00008958FEF9FEF0895FC01918D828D981720
:1001C00031F0828DE80FF11D858D90E008958FEF5D
:1001D0009FEF0895FC01918D228D892F90E0805C26
:1001E0009F4F821B91098F73992708958DEC91E0A1
:1001F0000E94EA0021E0892B09F420E0822F089573
:1002000080E090E0892B29F00E94F60081110C9487
:1002100000000895FC01A48DA80FB92FB11DA35AA9
:10022000BF4F2C91848D90E001968F739927848F16
:10023000A689B7892C93A089B1898C918370806439
:100240008C93938D848D981306C00288F389E02DDA
:1002500080818F7D80830895EF92FF920F931F938B
:10026000CF93DF93EC0181E0888F9B8D8C8D981369
:100270001AC0E889F989808185FF15C09FB7F89475
:10028000EE89FF896083E889F989808183708064C1
:1002900080839FBF81E090E0DF91CF911F910F910C
:1002A000FF90EF900895F62E0B8D10E00F5F1F4F1B
:1002B0000F731127E02E8C8D8E110CC00FB607FC2A
:1002C000FACFE889F989808185FFF5CFCE010E94B8
:1002D0000A01F1CFEB8DEC0FFD2FF11DE35AFF4F1B
:1002E000F0829FB7F8940B8FEA89FB898081806246
:1002F000CFCFCF93DF93EC01888D8823B9F0AA8903
:10030000BB89E889F9898C9185FD03C0808186FDD0
:100310000DC00FB607FCF7CF8C9185FFF2CF80811F
:1003200085FFEDCFCE010E940A01E9CFDF91CF9189
:10033000089590E0FC01E255FF4F2491FC01E65640
:10034000FF4F3491FC01EA57FF4FE491EE23C9F0CF
:10035000222339F0233001F1A8F4213019F12230A1
:1003600029F1F0E0EE0FFF1FE458FF4FA591B49183
:100370008FB7F894EC91611126C030953E233C93E1
:100380008FBF08952730A9F02830C9F0243049F7ED
:10039000809180008F7D03C0809180008F77809353
:1003A0008000DFCF84B58F7784BDDBCF84B58F7DB0
:1003B000FBCF8091B0008F778093B000D2CF809137
:1003C000B0008F7DF9CF3E2BDACFCF93DF9390E053
:1003D000FC01E656FF4F24918A579F4FFC01849100
:1003E0008823C9F090E0880F991FFC01EE58FF4F59
:1003F000A591B491FC01E458FF4FC591D4916111CE
:100400000DC09FB7F8948C91209582238C9388819E
:10041000282328839FBFDF91CF910895623051F444
:100420009FB7F8943C91822F809583238C93E88129
:100430002E2BEFCF8FB7F894EC912E2B2C938FBFF0
:10044000EACF3FB7F8948091C9019091CA01A09179
:10045000CB01B091CC0126B5A89B05C02F3F19F068
:100460000196A11DB11D3FBFBA2FA92F982F882734
:10047000BC01CD01620F711D811D911D42E0660F0F
:10048000771F881F991F4A95D1F708958F929F92E1
:10049000AF92BF92CF92DF92EF92FF924B015C013D
:1004A0000E9421026B017C010E9421026C197D09CE
:1004B0008E099F09683E734081059105A8F321E0EC
:1004C000821A9108A108B10888EEC80E83E0D81EF0
:1004D000E11CF11C81149104A104B10429F7FF90DF
:1004E000EF90DF90CF90BF90AF909F908F90089546
:1004F000CF92DF92EF92FF920F931F93CF93DF93F0
:10050000EC017A016901E881F9810190F081E02D27
:100510000995E881F9810084F185E02D9801A60113
:10052000B701CE01DF91CF911F910F91FF90EF9016
:10053000DF90CF9009946F927F928F929F92AF92AB
:10054000BF92CF92DF92EF92FF920F931F93CF93C0
:10055000DF93CDB7DEB7AC970FB6F894DEBF0FBE12
:10056000CDBFDC011696ED91FC91319609F48BC05C
:1005700059013A016B018C01FE0131964F0188E26D
:10058000DF011D928A95E9F7D801ED91FC9104886D
:10059000F589E02DB401C80109957C01892B09F08A
:1005A0005CC01AA619A61CA61BA6D801ED91FC9149
:1005B0000688F789E02D9E01255D3F4FAE01475D1E
:1005C0005F4FB401C80109957C01892B09F045C032
:1005D000A114B10439F088E2F401D50101900D9223
:1005E0008A95E1F7C114D10409F189A59AA521E002
:1005F00030E097FF02C02FEF3FEF9F77829FB0015F
:10060000839F700D929F700D1124072E000C880B94
:10061000990B0E94D00920E030E040E251E40E94B2
:100620002609F601608371838283938361147104C8
:10063000A1F06BA57CA5072E000C880B990B0E94DE
:10064000D00920E030E040E251E40E942609D301C5
:100650006D937D938D939C931397C701AC960FB6C2
:10066000F894DEBF0FBECDBFDF91CF911F910F91E8
:10067000FF90EF90DF90CF90BF90AF909F908F90C2
:100680007F906F90089587E1E82EF12CE6CF8F924E
:100690009F92AF92BF92CF92DF92EF92FF920F9311
:1006A0001F93CF93DF93EC018B016A017901E881FD
:1006B000F9810288F389E02D0995B82EB801685FA9
:1006C0007F4FE881F9810288F389E02DCE010995F9
:1006D000982EB801605F7F4FE881F9810288F38925
:1006E000E02DCE010995A82EB801685E7F4FE88104
:1006F000F9810288F389E02DCE010995882EB80191
:10070000605E7F4FE881F9810288F389E02DCE0198
:1007100009959B2D990D9A0D980D891319C09A2D45
:10072000882DF601918380839B2D892DF70191837C
:10073000808390E080E0DF91CF911F910F91FF9037
:10074000EF90DF90CF90BF90AF909F908F900895E3
:1007500085E190E0F0CF47E050E080E0FB0121919F
:10076000BF01042E01C0220F0A94EAF7820F415004
:100770005109A0F708953F924F925F926F927F9236
:100780008F929F92AF92BF92CF92DF92EF92FF92A1
:100790000F931F93CF93DF93EC01162F7A0169011A
:1007A0000E9421024B015C01312C11113984360168
:1007B000660C771C660C771C85E0681A71082701A7
:1007C000440C551C440C551C85E0481A510810E097
:1007D00000E060E070E0CB012A813B814C815D81CB
:1007E00026173707480759070CF10115110599F528
:1007F00082E0E816F1041CF0C2010197F1F70E94B3
:100800002102681979098A099B09EA85F0E0EE0F4F
:10081000FF1FE859FF4FA591B4912C910F5F1F4F17
:1008200039852323231105C097FFD6CF6FEF7FEFC4
:10083000CB01DF91CF911F910F91FF90EF90DF904F
:10084000CF90BF90AF909F908F907F906F905F9070
:100850004F903F90089582E0C816D10484F2C301FE
:10086000CCCFFC01828590E00895FC01818590E069
:100870000895CF92DF92EF92FF920F931F93CF9341
:10088000DF93EC017A016901E881F9810190F0813F
:10089000E02D0995E881F9810480F581E02D98012A
:1008A000A601B701CE01DF91CF911F910F91FF906B
:1008B000EF90DF90CF900994CF92DF92EF92FF926A
:1008C0000F931F93CF93DF93CDB7DEB728970FB663
:1008D000F894DEBF0FBECDBFDC011696ED91FC9102
:1008E000319609F440C08A017B0119821A821B8269
:1008F0001C821D821E821F821886DC01ED91FC91F4
:100900000084F185E02DAE014B5F5F4FBE016F5F4C
:100910007F4F09956C01892BB1F4E114F10441F08A
:1009200069817A818B819C810E949809F70160839B
:100930000115110541F06D817E818F8198850E949E
:100940009809D8016C93C60128960FB6F894DEBFBB
:100950000FBECDBFDF91CF911F910F91FF90EF9010
:10096000DF90CF90089587E1C82ED12CECCF262FB1
:100970002D7F29F4FC01608790E080E0089588E1F4
:1009800090E00895DC0117967C936E931697FB0117
:10099000E656FF4FE4911996EC9319976A577F4FEB
:1009A000FB0164911A966C930895FC01019000205C
:1009B000E9F73197AF01481B590BBC018DEC91E071
:1009C0000C948C008F929F92AF92BF920F931F93C3
:1009D000CF93DF93CDB7DEB7A1970FB6F894DEBF04
:1009E0000FBECDBF19A2423008F44AE08E010F5D60
:1009F0001F4F842E912CB12CA12CA50194010E9493
:100A0000F70AE62FB901CA01EA30F4F4E05DD80133
:100A1000EE938D01232B242B252B79F790E080E09A
:100A2000109719F0CD010E94D504A1960FB6F89445
:100A3000DEBF0FBECDBFDF91CF911F910F91BF9051
:100A4000AF909F908F900895E95CE1CFCF93DF93B3
:100A50000E94D504EC018AE491E00E94D5048C0F39
:100A60009D1FDF91CF9108954F925F926F927F9279
:100A70008F929F92AF92BF92CF92DF92EF92FF92AE
:100A80000F931F93CF936B017C01742EAC019B01DC
:100A90000E94F20A882399F08DE491E0CF911F9192
:100AA0000F91FF90EF90DF90CF90BF90AF909F900D
:100AB0008F907F906F905F904F900C94D50446017B
:100AC0005701E894B7F82FEF3FEF4FE75FE7C50115
:100AD000B4010E94F20A81110DC02FEF3FEF4FE7E2
:100AE0005FE7C501B4010E94210918161CF481E5D5
:100AF00091E0D4CF2FEF3FEF4FE75FE4C701B6019E
:100B00000E94800A18161CF485E591E0C7CF2FEFEC
:100B10003FEF4FE75FECC701B6010E94210987FD57
:100B2000F3CF20E030E0A901C701B6010E942109FE
:100B300010E000E087FF0AC06DE28DEC91E00E94BA
:100B40002C018C01F7FAF094F7F8F094C0E060E023
:100B500070E080E09FE37C1641F020E030E040E26E
:100B600051E40E942609CF5FF6CFA70196010E94AB
:100B7000B5082B013C010E949F094B015C014AE032
:100B80000E94E2047C01E00EF11ECC23C1F1C501FC
:100B9000B4010E94CE099B01AC01C301B2010E94C5
:100BA000B4084B015C016EE28DEC91E00E942C01D7
:100BB000E80EF91EC15018F120E030E040E251E4A7
:100BC000C501B4010E94850A2B013C010E949F09C6
:100BD0004B01B12CA12C4AE0C501B4010E94E204F2
:100BE000E80EF91EC501B4010E94CE099B01AC01BB
:100BF000C301B2010E94B4084B015C01DBCFC70105
:100C0000CF911F910F91FF90EF90DF90CF90BF9009
:100C1000AF909F908F907F906F905F904F900895CE
:100C20000E941F0BEF92FF920F931F93CF93DF93BE
:100C3000EC018B0188E2FB0111928A95E9F761E0F2
:100C40008E810E94E50160E08E810E9499018BE90E
:100C50009FE00197F1F761E08E810E94990168851C
:100C60008E810E94E5018BE990E00197F1F7E88120
:100C7000F9810088F189E02D26E030E04AE050E07B
:100C800060E0CE0109956E317105810591056CF426
:100C9000982F872F762F66276061CB01DF91CF9148
:100CA0001F910F91FF90EF900895E881F9810088DE
:100CB000F189E02D26E030E04AE050E061E0CE012D
:100CC00009957801F8E2EF0EF11C62337105810598
:100CD000910534F4982F872F762F66276161DDCF39
:100CE000E881F9810088F189E02D26E030E04AE0D2
:100CF00050E060E0CE0109956831710581059105EC
:100D000034F4982F872F762F66276261C6CFE8814B
:100D1000F9810088F189E02D26E030E04AE050E0DA
:100D200061E0CE0109956B3071058105910534F4C0
:100D3000982F872F762F66276361AFCF21E0693226
:100D40007105810591050CF420E0F80121938F01D4
:100D5000EE16FF0629F6E881F9810088F189E02D79
:100D600026E030E04AE050E060E0CE0109956831CD
:100D700071058105910534F4982F872F762F66270A
:100D800064618BCF70E060E088CF1F920F920FB646
:100D90000F9211242F933F934F935F936F937F9301
:100DA0008F939F93AF93BF93EF93FF938DEC91E05D
:100DB0000E940A01FF91EF91BF91AF919F918F9196
:100DC0007F916F915F914F913F912F910F900FBE47
:100DD0000F901F9018951F920F920FB60F9211242B
:100DE0002F938F939F93EF93FF93E091DD01F09109
:100DF000DE018081E091E301F091E40182FD1BC0FE
:100E000090818091E6018F5F8F732091E7018217B7
:100E100041F0E091E601F0E0E353FE4F958F8093BF
:100E2000E601FF91EF919F918F912F910F900FBE4F
:100E30000F901F9018958081F4CF1F920F920FB6DC
:100E40000F9211242F933F938F939F93AF93BF9350
:100E50008091C5019091C601A091C701B091C801D0
:100E60003091C40123E0230F2D3758F50196A11DC1
:100E7000B11D2093C4018093C5019093C601A09336
:100E8000C701B093C8018091C9019091CA01A09196
:100E9000CB01B091CC010196A11DB11D8093C90178
:100EA0009093CA01A093CB01B093CC01BF91AF91B5
:100EB0009F918F913F912F910F900FBE0F901F9098
:100EC000189526E8230F0296A11DB11DD2CFCF930E
:100ED000DF93EDECF1E01382128288EE93E0A0E064
:100EE000B0E084839583A683B78384E091E0918307
:100EF000808385EC90E09587848784EC90E09787E9
:100F0000868780EC90E0918B808B81EC90E0938BD6
:100F1000828B82EC90E0958B848B86EC90E0978BB3
:100F2000868B118E128E138E148ECAE6D2E086E165
:100F300091E09983888380E291EAA7E0B0E08A8318
:100F40009B83AC83BD838FEF9FEF9F838E83188637
:100F500089878A8768E070E0CE010E94C20482E33C
:100F600091E099838883DF91CF910895CF93DF93A8
:100F7000CDB7DEB728970FB6F894DEBF0FBECDBF52
:100F8000789484B5826084BD84B5816084BD85B564
:100F9000826085BD85B5816085BD80916E00816070
:100FA00080936E0010928100809181008260809316
:100FB0008100809181008160809381008091800018
:100FC0008160809380008091B10084608093B10043
:100FD0008091B00081608093B00080917A0084603D
:100FE00080937A0080917A00826080937A00809169
:100FF0007A00816080937A0080917A008068809383
:101000007A001092C100E091DD01F091DE0182E0F2
:101010008083E091D901F091DA011082E091DB0147
:10102000F091DC018FEC80831092E501E091E10109
:10103000F091E20186E08083E091DF01F091E00130
:10104000808180618083E091DF01F091E001808107
:1010500088608083E091DF01F091E0018081806809
:101060008083E091DF01F091E00180818F7D8083BA
:1010700000E010E089E591E00E9426058EE791E00E
:101080000E9426051D821E821F82188619821A82DE
:101090001B821C8230E020E0AE014F5F5F4FBE013B
:1010A0006B5F7F4F8AE692E00E949B026C01892B66
:1010B00031F18EE891E00E94D5040D2C000CEE0871
:1010C000FF084AE0C701B601F7FE0DC06DE28DECE6
:1010D00091E00E942C0166277727CB016C197D09CE
:1010E0008E099F094AE00E94E2048AE491E00E948E
:1010F000D50460ED77E080E090E00E94460287EA48
:1011000091E00E94D5046D817E818F81988542E0B7
:101110000E94340560EB8DEC91E00E942C018EEA78
:1011200091E00E94D50482EB91E00E94D504698190
:101130007A818B819C8142E00E9434058FEB91E0A3
:101140000E94260564EC79E080E090E00E9446026F
:101150000115110509F48ECF0E94F600882309F4C9
:1011600089CF0E94000086CF5058BB27AA270E9433
:10117000CC080C94460A0E94380A38F00E943F0AB4
:1011800020F039F49F3F19F426F40C94350A0EF43C
:10119000E095E7FB0C942F0AE92F0E94570A58F3B9
:1011A000BA17620773078407950720F079F4A6F54C
:1011B0000C94790A0EF4E0950B2EBA2FA02D0B019A
:1011C000B90190010C01CA01A0011124FF27591B8C
:1011D00099F0593F50F4503E68F11A16F040A22F92
:1011E000232F342F4427585FF3CF46953795279503
:1011F000A795F0405395C9F77EF41F16BA0B620B02
:10120000730B840BBAF09150A1F0FF0FBB1F661F48
:10121000771F881FC2F70EC0BA0F621F731F841F8B
:1012200048F4879577956795B795F7959E3F08F0B1
:10123000B0CF9395880F08F09927EE0F9795879573
:1012400008950E940B0A08F481E008950E943A096B
:101250000C94460A0E943F0A58F00E94380A40F057
:1012600029F45F3F29F00C942F0A51110C947A0A4B
:101270000C94350A0E94570A68F39923B1F3552359
:1012800091F3951B550BBB27AA2762177307840799
:1012900038F09F5F5F4F220F331F441FAA1FA9F32F
:1012A00035D00E2E3AF0E0E832D091505040E6951D
:1012B000001CCAF72BD0FE2F29D0660F771F881F7E
:1012C000BB1F261737074807AB07B0E809F0BB0B71
:1012D000802DBF01FF2793585F4F3AF09E3F510585
:1012E00078F00C942F0A0C947A0A5F3FE4F3983E4E
:1012F000D4F3869577956795B795F7959F5FC9F76E
:10130000880F911D9695879597F90895E1E0660FEE
:10131000771F881FBB1F621773078407BA0720F067
:10132000621B730B840BBA0BEE1F88F7E0950895D0
:101330000E949F096894B1110C947A0A08950E9442
:101340005F0A88F09F5798F0B92F9927B751B0F0EE
:10135000E1F0660F771F881F991F1AF0BA95C9F739
:1013600014C0B13091F00E94790AB1E008950C9454
:10137000790A672F782F8827B85F39F0B93FCCF307
:10138000869577956795B395D9F73EF490958095B6
:10139000709561957F4F8F4F9F4F0895E89409C0D6
:1013A00097FB3EF490958095709561957F4F8F4F98
:1013B0009F4F9923A9F0F92F96E9BB279395F695AE
:1013C000879577956795B795F111F8CFFAF4BB0F2C
:1013D00011F460FF1BC06F5F7F4F8F4F9F4F16C090
:1013E000882311F096E911C0772321F09EE8872F1A
:1013F000762F05C0662371F096E8862F70E060E0D6
:101400002AF09A95660F771F881FDAF7880F96954E
:10141000879597F90895990F0008550FAA0BE0E8F2
:10142000FEEF16161706E807F907C0F012161306A6
:10143000E407F50798F0621B730B840B950B39F4E6
:101440000A2661F0232B242B252B21F408950A264C
:1014500009F4A140A6958FEF811D811D089597F98C
:101460009F6780E870E060E008959FEF80EC08954A
:1014700000240A9416161706180609060895002473
:101480000A9412161306140605060895092E0394ED
:10149000000C11F4882352F0BB0F40F4BF2B11F461
:1014A00060FF04C06F5F7F4F8F4F9F4F089557FDC0
:1014B0009058440F551F59F05F3F71F04795880FC2
:1014C00097FB991F61F09F3F79F087950895121659
:1014D00013061406551FF2CF4695F1DF08C0161605
:1014E00017061806991FF1CF8695710561050894B6
:1014F0000895E894BB2766277727CB0197F90895CD
:101500000E940B0A08F48FEF08950E94980A0C9429
:10151000460A0E94380A38F00E943F0A20F09523BC
:1015200011F00C942F0A0C94350A11240C947A0AA9
:101530000E94570A70F3959FC1F3950F50E0551F15
:10154000629FF001729FBB27F00DB11D639FAA2718
:10155000F00DB11DAA1F649F6627B00DA11D661F67
:10156000829F2227B00DA11D621F739FB00DA11D88
:10157000621F839FA00D611D221F749F3327A00D42
:10158000611D231F849F600D211D822F762F6A2FDE
:1015900011249F5750409AF0F1F088234AF0EE0F43
:1015A000FF1FBB1F661F771F881F91505040A9F770
:1015B0009E3F510580F00C942F0A0C947A0A5F3FED
:1015C000E4F3983ED4F3869577956795B795F795AC
:1015D000E7959F5FC1F7FE2B880F911D9695879524
:1015E00097F908950E940B0A880B990B0895A1E2C0
:1015F0001A2EAA1BBB1BFD010DC0AA1FBB1FEE1F8D
:10160000FF1FA217B307E407F50720F0A21BB30BD7
:10161000E40BF50B661F771F881F991F1A9469F753
:1016200060957095809590959B01AC01BD01CF01AF
:101630000895EE0FFF1F0590F491E02D099481E0CD
:0C16400090E0F8940C94240BF894FFCF79
:10164C00000000002C018C00B9007901EA00C800F0
:10165C00DC0000000000C204B7045C04390410066E
:10166C00100635043104BB03AB031006470300001E
:10167C000000C204B7045C0439049B0278023504F0
:10168C003104BB03AB03120647030D0A006E616EF7
:10169C0000696E66006F7666003D3D3D3D3D3D3D0B
:1016AC003D3D3D3D3D3D3D3D3D3D3D3D3D3D3D3D5E
:1016BC003D3D3D3D3D3D3D3D3D3D3D3D3D00536151
:1016CC006D706C652044485432322E2E2E005265BB
:1016DC006164204448543232206661696C65642C24
:1016EC00206572723D2000537568753A2000432CBA
:1016FC0020006B656C656D626170616E3A20002034
:04170C00524825001A
:00000001FF
